S00D0000736C6176652E73726563FC
S11300000C942A000C9447000C9447000C9447006D
S11300100C9447000C9447000C9447000C94470040
S11300200C9447000C9447000C9447000C94470030
S11300300C9447000C9447000C9447000C94470020
S11300400C9447000C9447000C9447000C94470010
S11300500C94470011241FBECFE5D4E0DEBFCDBF12
S113006010E0A0E6B0E0EEE3F6E002C005900D92E9
S1130070A637B107D9F720E0A6E7B0E001C01D928A
S1130080A737B207E1F70E9421010C941D030C94D9
S1130090000097B1906497B996B1906896B9806E54
S11300A097B19F6197B997B1892387B986B1826067
S11300B086B986B1846086B9089586B1806486B9AC
S11300C03699FECF24B185B190E0982F8827822BF2
S11300D008958EBB9FBB6DBB8CB384608CBB8CB30B
S11300E082608CBBE199FECF08958EBB9FBB8CB31D
S11300F081608CBB8DB3089581E080937600089570
S11301001092760082B3877F82BB089582B38460A5
S113011082BB089582B38B7F82BB0895823170F4D1
S11301208A5048B321E030E0B90102C0660F771F5E
S11301308A95E2F7CB01842B88BB08958A3170F449
S1130140825148B321E030E0B90102C0660F771F45
S11301508A95E2F7CB018095842388BB08950E9499
S1130160940180936000682F80E091E00E94690010
S11301702FEF81EE94E0215080409040E1F700C0E1
S1130180000008958EB588608EBD8EB580618EBDE9
S11301908EB58D7F8EBD84EF91E09BBD8ABD99BDE8
S11301A088BD8FE19EE497BD86BD8FB582608FBD0B
S11301B08FB580688FBD8FB580628FBD089528E4A8
S11301C031EE48E251E40E948E0220E030E04AEF32
S11301D053E40E94A2010E940E027BBD6ABD8EB54B
S11301E082608EBD089560E070E084EB92E40E942A
S11301F0DF00089560E070E0CB010E94DF00089505
S113020020E030E040E351E40E948E0220E030E040
S11302104AEF53E40E94A2010E940E0279BD68BD18
S11302208EB582608EBD089560E070E084EB92E448
S11302300E940001089560E070E0CB010E9400017B
S11302400895CF93DF93CDB7DEB764970FB6F894D4
S1130250DEBF0FBECDBF80E091E00E9475008093A9
S113026060008FEF87BB81B38C6381BB80E00E9409
S1130270490080E895E20E947B010E94C20084E16B
S1130280E1E6F0E0DE01119601900D928A95E1F726
S113029080917600882371F00E945D009695879581
S11302A02091600030E02817390720F482B3886079
S11302B082BB03C082B3877F82BB0E9494019FEFFD
S11302C0980F993080F4E82FF0E03197EE0FFF1F7C
S11302D021E030E02C0F3D1FE20FF31F0190F0816D
S11302E0E02D0995D5CF96EF980F903188F6EB89DC
S11302F0FC890995CDCF9C0140E050E060E271EAB1
S113030087E090E00E94FB022150310930BD29B9F9
S11303108AB180618AB98AB188608AB98AB18068F1
S11303208AB986E880BD089580E29EE404C08230E4
S1130330910528F001975F9BFACF8CB1089580E076
S113034008955058BB27AA270E94B9010C9454025F
S11303500E94460238F00E944D0220F039F49F3F7B
S113036019F426F40C9443020EF4E095E7FB0C9484
S11303703D02E92F0E94650258F3BA17620773071A
S11303808407950720F079F4A6F50C9487020EF4FF
S1130390E0950B2EBA2FA02D0B01B90190010C0191
S11303A0CA01A0011124FF27591B99F0593F50F4A9
S11303B0503E68F11A16F040A22F232F342F442701
S11303C0585FF3CF469537952795A795F0405395F9
S11303D0C9F77EF41F16BA0B620B730B840BBAF0C9
S11303E09150A1F0FF0FBB1F661F771F881FC2F734
S11303F00EC0BA0F621F731F841F48F48795779548
S11304006795B795F7959E3F08F0B0CF9395880F01
S113041008F09927EE0F9795879508950E946D022D
S113042088F09F5798F0B92F9927B751B0F0E1F0B1
S1130430660F771F881F991F1AF0BA95C9F714C061
S1130440B13091F00E948702B1E008950C948702C4
S1130450672F782F8827B85F39F0B93FCCF386959A
S113046077956795B395D9F73EF4909580957095F7
S113047061957F4F8F4F9F4F089597F99F6780E84D
S113048070E060E008959FEF80EC089500240A94E2
S11304901616170618060906089500240A9412165B
S11304A01306140605060895092E0394000C11F48E
S11304B0882352F0BB0F40F4BF2B11F460FF04C03B
S11304C06F5F7F4F8F4F9F4F089557FD9058440F94
S11304D0551F59F05F3F71F04795880F97FB991F9F
S11304E061F09F3F79F0879508951216130614065C
S11304F0551FF2CF4695F1DF08C0161617061806E9
S1130500991FF1CF86957105610508940895E894C3
S1130510BB2766277727CB0197F908950E94A1028C
S11305200C9454020E94460238F00E944D0220F0BE
S1130530952311F00C943D020C94430211240C9465
S113054088020E94650270F3959FC1F3950F50E0F5
S1130550551F629FF001729FBB27F00DB11D639F71
S1130560AA27F00DB11DAA1F649F6627B00DA11D17
S1130570661F829F2227B00DA11D621F739FB00DBD
S1130580A11D621F839FA00D611D221F749F33272D
S1130590A00D611D231F849F600D211D822F762FC6
S11305A06A2F11249F5750409AF0F1F088234AF0A3
S11305B0EE0FFF1FBB1F661F771F881F915050400F
S11305C0A9F79E3F510580F00C943D020C948802DB
S11305D05F3FE4F3983ED4F3869577956795B79596
S11305E0F795E7959F5FC1F7FE2B880F911D9695B0
S11305F0879597F90895A1E21A2EAA1BBB1BFD014A
S11306000DC0AA1FBB1FEE1FFF1FA217B307E407ED
S1130610F50720F0A21BB30BE40BF50B661F771F45
S1130620881F991F1A9469F7609570958095909525
S11106309B01AC01BD01CF010895F894FFCFEA
S113063E19AF007C008000F300FA0014011B018640
S109064E008A008E00008A
S9030000FC
