:100000000C94DE000C94FB000C94FB000C94FB00A1
:100010000C94FB000C94FB000C94FB000C94FB0074
:100020000C94FB000C94970B0C94FB000C94FB00BD
:100030000C94FB000C94FB000C94FB000C94FB0054
:100040000C94FB000C94FB000C94FB000C94FB0044
:100050000C94FB00090122013B0154016D016D016B
:100060006D016D016D016D016D016D016D016D0120
:100070006D016D016D016D016D016D016D016D0110
:100080006D016D016D016D016D016D016D016D0100
:100090006D016D01090122013B01540182019B01A7
:1000A000B401CD01E601E601E601E601E601E60163
:1000B000E601E601E601E601E601E601E601E60108
:1000C000E601E601E601E601E601E601E601E601F8
:1000D000E601E601E601E601E601E60182019B0197
:1000E000B401CD01FB010F02230237024B024B0288
:1000F0004B024B024B024B024B024B024B024B0298
:100100004B024B024B024B024B024B024B024B0287
:100110004B024B024B024B024B024B024B024B0277
:100120004B024B02FB010F02230237025702590216
:100130005B025D025F025F025F025F025F025F02BD
:100140005F025F025F025F025F025F025F025F02A7
:100150005F025F025F025F025F025F025F025F0297
:100160005F025F025F025F025F025F025702590295
:100170005B025D0273027502770279027B027B02E9
:100180007B027B027B027B027B027B027B027B0287
:100190007B027B027B027B027B027B027B027B0277
:1001A0007B027B027B027B027B027B027B027B0267
:1001B0007B027B02730275027702790211241FBE53
:1001C000CFE5D4E0DEBFCDBF11E0A0E6B0E0E0EBCC
:1001D000FFE102C005900D92A83FB107D9F722E0D8
:1001E000A8EFB1E001C01D92AF30B207E1F70E9465
:1001F000A70A0C94D60F0C94000090E0FC01E15487
:10020000F109E432F10508F068C0E65DFF4F0C9497
:10021000AB0C442359F02AB381E090E002C0880F70
:10022000991F6A95E2F7822B8ABB08952AB381E071
:1002300090E002C0880F991F6A95E2F780958223AB
:100240008ABB0895442359F027B381E090E002C0AF
:10025000880F991F6A95E2F7822B87BB089527B311
:1002600081E090E002C0880F991F6A95E2F78095BF
:10027000822387BB0895442359F024B381E090E0A2
:1002800002C0880F991F6A95E2F7822B84BB0895FC
:1002900024B381E090E002C0880F991F6A95E2F7CD
:1002A0008095822384BB0895442359F021B381E0D3
:1002B00090E002C0880F991F6A95E2F7822B81BBFC
:1002C000089521B381E090E002C0880F991F6A95DC
:1002D000E2F78095822381BB089580E890E09F93A8
:1002E0008F930E94D60C0F900F90089590E0FC0120
:1002F000E154F109E432F10508F068C0E25BFF4F18
:100300000C94AB0C442359F02BB381E090E002C075
:10031000880F991F6A95E2F7822B8BBB08952BB348
:1003200081E090E002C0880F991F6A95E2F78095FE
:1003300082238BBB0895442359F028B381E090E0D9
:1003400002C0880F991F6A95E2F7822B88BB089537
:1003500028B381E090E002C0880F991F6A95E2F708
:100360008095822388BB0895442359F025B381E00A
:1003700090E002C0880F991F6A95E2F7822B85BB37
:10038000089525B381E090E002C0880F991F6A9517
:10039000E2F78095822385BB0895442359F022B368
:1003A00081E090E002C0880F991F6A95E2F7822BE6
:1003B00082BB089522B381E090E002C0880F991FAC
:1003C0006A95E2F78095822382BB089580E890E0E9
:1003D0009F938F930E94D60C0F900F90089590E0FA
:1003E000FC01E154F109E432F10508F054C0EE5883
:1003F000FF4F0C94AB0C49B381E090E09C01062EBA
:1004000002C0220F331F0A94E2F7842F90E0822368
:10041000932302C0959587956A95E2F7089546B3B0
:1004200081E090E09C01062E02C0220F331F0A9447
:10043000E2F7842F90E08223932302C0959587955D
:100440006A95E2F7089543B381E090E09C01062E9F
:1004500002C0220F331F0A94E2F7842F90E0822318
:10046000932302C0959587956A95E2F7089543B363
:1004700081E090E09C01062E02C0220F331F0A94F7
:10048000E2F7842F90E08223932302C0959587950D
:100490006A95E2F70895089590E0FC01E154F109AE
:1004A000E432F10560F4EA56FF4F0C94AB0C6ABBE2
:1004B000089567BB089564BB089561BB089580E803
:1004C00090E09F938F930E94D60C0F900F90089509
:1004D00090E0FC01E154F109E432F10560F4E654E6
:1004E000FF4F0C94AB0C6BBB089568BB089565BBC4
:1004F000089562BB089580E890E09F938F930E94D7
:10050000D60C0F900F9008956295607F823479F039
:1005100018F4813431F00895833479F0843499F0FB
:1005200008958BB38F708BBB8BB3862B8BBB88B33B
:100530008F7088BB88B3862B88BB85B38F7085BBD3
:1005400085B3862B85BB82B38F7082BB82B3682B49
:1005500062BB08958EBB9FBB6DBB8CB384608CBBAC
:100560008CB382608CBBE199FECF08958EBB9FBB9C
:100570008CB381608CBB8DB308956FE083E40E94DF
:100580004C0260EF83E40E9468020895EF92FF92AC
:100590000F931F93CF93DF93CDB7DEB760970FB65E
:1005A000F894DEBF0FBECDBF80E1E0E7F0E0DE01F2
:1005B000119601900D928A95E1F7EE24EA94F12CC0
:1005C00039C041E060E083E40E94760141E061E0EF
:1005D00083E40E94760141E062E083E40E947601B8
:1005E00041E063E083E40E94760140E06F2D83E404
:1005F0000E94760110E019C064E0610F83E40E945C
:10060000EF01082F811110C0EF2DF0E0EE0FFF1F5A
:10061000EE0FFF1F81E090E08C0F9D1FE80FF91F88
:10062000E10FF11DE08003C01F5F143028F30023A9
:1006300021F0F39493E09F1520F68E2D60960FB66F
:10064000F894DEBF0FBECDBFDF91CF911F910F9108
:10065000FF90EF90089541E060E082E40E9476010F
:100660008FE99FE00197F1F700C0000040E060E0F3
:1006700082E40E9476018FE99FE00197F1F700C0C4
:1006800000000895CF93C82F682F62956F7081E4A2
:100690000E94840240E061E082E40E9476010E94B0
:1006A0002B036C2F81E40E94840240E061E082E42D
:1006B0000E9476010E942B038FEC97E00197F1F7DF
:1006C00000C00000CF91089541E064E081E40E9401
:1006D000FD0041E065E081E40E94FD0041E066E04C
:1006E00081E40E94FD0041E067E081E40E94FD009A
:1006F00041E060E082E40E94FD0041E061E082E4CC
:100700000E94FD0040E061E082E40E94760182E008
:100710000E9442038FE99FE00197F1F700C00000BB
:1007200088E20E9442038FE99FE00197F1F700C041
:1007300000008EE00E9442038FE99FE00197F1F7ED
:1007400000C0000081E00E9442038FE99FE0019712
:10075000F1F700C0000086E00E9442038FE99FE0AD
:100760000197F1F700C0000008959FEF980F9230B5
:1007700070F4613170F4662371F0813019F42FE761
:10078000260F0AC0823041F42FEB260F05C020E867
:1007900003C020E801C020E8822F0E9442038FECB2
:1007A00097E00197F1F700C000000895CF93C82F9C
:1007B000682F62956F7081E40E94840241E061E0DD
:1007C00082E40E9476010E942B036C2F81E40E9438
:1007D000840241E061E082E40E9476010E942B03E2
:1007E0008FEC97E00197F1F700C00000CF910895DA
:1007F000CF93DF93EC0103C00E94D603219688813A
:100800008111FACFDF91CF910895FF920F931F933B
:10081000CF93DF938C01D62F88E091E00E94B6023F
:10082000F82EC0E021C081E090E00C2E02C0880FBD
:10083000991F0A94E2F72F2D30E0822393230C2E88
:1008400002C0959587950A94E2F7019761F0EC2F25
:10085000F0E0EE0FFF1FE00FF11F1182108282E126
:100860008C0F0E94800CCF5FCD17E8F2DF91CF9103
:100870001F910F91FF9008950F931F93CF93DF93D4
:100880008C011092F8011092F9011092FA01109265
:10089000FB011092FC011092FD011092FE011092DA
:1008A000FF010E94200CC0E0D0E032C00E94C602CE
:1008B0008F3F71F1F801EC0FFD1F80831092F8015A
:1008C0001092F9011092FA011092FB011092FC01B2
:1008D0001092FD011092FE011092FF010E94D603BA
:1008E0002FEF81EE94E0215080409040E1F700C06E
:1008F00000006C2F6A5F82E00E94B5038AE20E94CA
:10090000D60321968FE097E20197F1F700C000002F
:10091000C430D1055CF20E94240CDF91CF911F916D
:100920000F910895CF92DF92EF92FF921F93CF9392
:10093000DF936C017B01142FC0E00DC08C2F90E081
:10094000F601E80FF91FD0818E0D9F1D0E94B6029F
:10095000D81305C0CF5FC11788F381E001C080E0E4
:10096000DF91CF911F91FF90EF90DF90CF9008958E
:10097000EF92FF921F93CF93DF9300D01F92CDB7DA
:10098000DEB781E00E9442038FE19EE40197F1F718
:1009900000C0000084E990E00E94F80361E082E07A
:1009A0000E94B50380EA90E00E94F8031092F801DB
:1009B0001092F9011092FA011092FB011092FC01C1
:1009C0001092FD011092FE011092FF010E94200C76
:1009D0008FEF8093040204C00E94C6028093040239
:1009E000809104028F3FC1F31092F8011092F90137
:1009F0001092FA011092FB011092FC011092FD017D
:100A00001092FE011092FF010E94240C9FEF22E53C
:100A100037E0915020403040E1F700C00000809165
:100A20000402803309F09DC074C081E00E9442033B
:100A30008FEF92E527E0815090402040E1F700C021
:100A4000000080EB90E00E94F80361E082E00E94E9
:100A5000B5038CEB90E00E94F80385E092E00E94E1
:100A60003C0444E060E071E085E092E00E94920482
:100A70008823B9F081E00E9442038FE19EE4019750
:100A8000F1F700C0000082EC90E00E94F8039FEFB5
:100A900029E638E1915020403040E1F700C00000E5
:100AA0003CC081E00E94420382E090E0811B9109FA
:100AB0009F938F9381ED90E09F938F93CE0101964A
:100AC0007C019F938F930E94EC0CC7010E94F80356
:100AD00084ED90E00E94F8039FEF29E638E1915001
:100AE00020403040E1F700C0000081E00E94420356
:100AF0008FEF90E722E0815090402040E1F700C066
:100B000000001F5F0F900F900F900F900F900F90AD
:100B100001C010E0133008F488CF133009F0D0C0C2
:100B200081E00E9442038FE19EE40197F1F700C04B
:100B300000008DED90E00E94F8038BB384608BBBC6
:100B40008BB38D7F8BBB8BB38E7F8BBB9AEA26EEEC
:100B500036E981E09150204030408040D9F70000D4
:100B600010CF813309F00DCF84C081E00E94420391
:100B70009FEF22E537E0915020403040E1F700C080
:100B8000000088EE90E00E94F80361E082E00E949D
:100B9000B5038CEB90E00E94F80380E092E00E94A5
:100BA0003C0444E064E071E080E092E00E94920442
:100BB000882301F181E00E9442038FE19EE40197C6
:100BC000F1F700C0000082EC90E00E94F8039FEF74
:100BD00029E638E1915020403040E1F700C00000A4
:100BE00081E00E9442038FE19EE40197F1F700C08B
:100BF000000043C081E00E9442038FE19EE4019720
:100C0000F1F700C0000082E090E0811B91099F9302
:100C10008F9381ED90E09F938F939E012F5F3F4FC5
:100C200079013F932F930E94EC0CC7010E94F803B7
:100C300084ED90E00E94F8033FEF89E698E131509F
:100C400080409040E1F700C0000081E00E94420334
:100C50002FEF30E782E0215030408040E1F700C0C4
:100C600000001F5F0F900F900F900F900F900F904C
:100C700001C010E0133008F478CF133009F581E09B
:100C80000E9442038FE19EE40197F1F700C000004B
:100C90008DED90E00E94F8038BB384608BBB8BB327
:100CA0008D7F8BBB8BB38E7F8BBB9AEA26EE36E9AA
:100CB00081E09150204030408040D9F7000061CE63
:100CC0000F900F900F90DF91CF911F91FF90EF90B9
:100CD00008951F93CF93DF93D82F81E00E944203A2
:100CE0008FE19EE40197F1F700C0000084EF90E0EF
:100CF0000E94F80361E082E00E94B503DD2321F049
:100D000085E091E00E94F8031092F8011092F90139
:100D10001092FA011092FB011092FC011092FD0159
:100D20001092FE011092FF010E94200CCFEF03C031
:100D30000E94C602C82F8FEC8C0F8430C8F70E9427
:100D4000240C9FEF22E547E0915020404040E1F71E
:100D500000C0000081E00E9442038FE19EE4019701
:100D6000F1F700C00000C43309F07DC0D13009F0B4
:100D70007AC082E191E00E94F80361E082E00E9483
:100D8000B50310E01092F8011092F9011092FA01E7
:100D90001092FB011092FC011092FD011092FE01D5
:100DA0001092FF010E94200CCFEF03C00E94C602E8
:100DB000C82FCF3FD9F3C13469F180ED8C0F883053
:100DC000F8F41092F8011092F9011092FA011092C1
:100DD000FB011092FC011092FD011092FE01109295
:100DE000FF018C2F0E94D6038C2F90E0C09721E04A
:100DF00030E0A90102C0440F551F8A95E2F7142B79
:100E00005FEF82E597E0515080409040E1F700C0ED
:100E10000000B8CF0E94240C612F88E091E00E946E
:100E2000AA0268E080E690E00E94050481E00E944A
:100E300042038FE19EE40197F1F700C000008EE1CC
:100E400091E00E94F8039FEF29E648E1915020408D
:100E50004040E1F700C0000081E00E9442038D2F76
:100E60000E9469061DC1C13309F086C081E00E945D
:100E700042038FE19EE40197F1F700C0000084E295
:100E800091E00E94F80361E082E00E94B5031092B5
:100E9000F8011092F9011092FA011092FB011092E0
:100EA000FC011092FD011092FE011092FF010E94C0
:100EB000200CCFEF03C00E94C602C82FCF3FD9F34A
:100EC0000E94240C9FEF22E547E0915020404040D3
:100ED000E1F700C00000C13421F48D2F0E946906A3
:100EE000DFC080ED8C0F883008F0DAC0EC2FF0E026
:100EF000F097EE0FFF1FE05AFF4F80819181892B01
:100F000069F18AED8C0F0E94800C5FE788E391E025
:100F1000515080409040E1F700C0000081E00E9405
:100F200042038FE19EE40197F1F700C000008DE2DB
:100F300091E00E94F8039FEF24E34CE091502040A1
:100F40004040E1F700C0000081E00E9442038FE1D1
:100F50009EE40197F1F700C0000088CF83E391E0A1
:100F60000E94F8039FEF29E648E19150204040405D
:100F7000E1F700C000007ACFC23309F086C081E0FB
:100F80000E9442038FE19EE40197F1F700C0000048
:100F90008BE391E00E94F80361E082E00E94B503D8
:100FA0001092F8011092F9011092FA011092FB01CF
:100FB0001092FC011092FD011092FE011092FF01AF
:100FC0000E94200CCFEF03C00E94C602C82FCF3F63
:100FD000D9F30E94240C9FEF22E547E09150204076
:100FE0004040E1F700C00000C13421F48D2F0E9481
:100FF000690656C080ED8C0F883008F051C0EC2F88
:10100000F0E0F097EE0FFF1FE05AFF4F80819181D3
:10101000892B69F182EE8C0F0E94800C5FE788E3D8
:1010200091E0515080409040E1F700C0000081E025
:101030000E9442038FE19EE40197F1F700C0000097
:101040008DE291E00E94F8039FEF24E34CE0915081
:1010500020404040E1F700C0000081E00E944203D0
:101060008FE19EE40197F1F700C0000088CF83E391
:1010700091E00E94F8039FEF29E648E1915020405B
:101080004040E1F700C000007ACFC33349F4D130CB
:1010900019F40E94080904C0D11102C00E9454082A
:1010A000DF91CF911F910895CF9381E00E94420379
:1010B0008FE19EE40197F1F700C0000085E491E024
:1010C0000E94F80361E082E00E94B5038FEF90E098
:1010D0000E94F8031092F8011092F9011092FA019F
:1010E0001092FB011092FC011092FD011092FE0182
:1010F0001092FF010E94200CCFEF03C00E94C60295
:10110000C82F8FEC8C0F8330C8F70E94240C9FEF00
:1011100022E587E0915020408040E1F700C00000C8
:10112000C33319F40E94A70A0CC0C13329F460E04C
:1011300084E00E94A30805C0C23319F480E00E9435
:101140006906CF9108951F93CF93DF93182FD62F61
:1011500081E00E9442038FE19EE40197F1F700C015
:10116000000082E591E00E94F80361E082E00E94C5
:10117000B50389E591E00E94F8031092F8011092FE
:10118000F9011092FA011092FB011092FC011092E9
:10119000FD011092FE011092FF010E94200CCFEF82
:1011A00003C00E94C602C82F8FEC8C0F8330C8F793
:1011B0000E94240C9FEF22E587E091502040804060
:1011C000E1F700C00000C13349F484E0810F0E94C0
:1011D000800C6D2F812F0E94A30816C0C23349F4E2
:1011E00085E0810F0E94800C6D2F812F0E94A30843
:1011F0000BC0C33349F4D13019F40E94080904C06C
:10120000D11102C00E945408DF91CF911F9108951F
:10121000CF9381E00E9442038FE19EE40197F1F7B2
:1012200000C0000087E691E00E94F80361E082E0E0
:101230000E94B50388E791E00E94F8031092F8013C
:101240001092F9011092FA011092FB011092FC0128
:101250001092FD011092FE011092FF010E94200CDD
:10126000CFEF03C00E94C602C82F8FEC8C0F8530D1
:10127000C8F70E94240C9FEF22E587E091502040A0
:101280008040E1F700C00000C13319F40E946509F5
:101290001AC0C23329F461E082E00E94A30813C09F
:1012A000C33329F461E084E00E94A3080CC0C43376
:1012B00029F461E080E00E94A30805C0C53319F459
:1012C00081E00E946906CF910895FF920F931F93CA
:1012D000CF93DF9300D01F92CDB7DEB781E00E949D
:1012E00042038FE19EE40197F1F700C0000087E818
:1012F00091E00E94F80361E082E00E94B50388E972
:1013000091E00E94F8031092F8011092F9011092F6
:10131000FA011092FB011092FC011092FD01109253
:10132000FE011092FF010E94200C1FEF03C00E94DB
:10133000C602182F8FEC810F8430C8F70E94240C4E
:101340009FEF22E537E0915020403040E1F700C0A8
:101350000000133329F582E00E94800C8FE798E3A8
:1013600021E0815090402040E1F700C0000081E082
:101370000E9442038FE19EE40197F1F700C0000054
:101380008DE291E00E94F80381E00E9442038FE128
:101390009EE40197F1F700C000000E946509CEC0ED
:1013A000143329F583E00E94800C9FE728E331E0A5
:1013B000915020403040E1F700C0000081E00E94E1
:1013C00042038FE19EE40197F1F700C000008DE237
:1013D00091E00E94F80381E00E9442038FE19EE4C5
:1013E0000197F1F700C000000E946509A7C0123301
:1013F00019F40E940809A2C0113309F09DC081E0D0
:101400000E9442038FE19EE40197F1F700C00000C3
:1014100083EA91E00E94F80366E081E00E94B50350
:101420008FEF89838A831B82F12C39C01092F801D7
:101430001092F9011092FA011092FB011092FC0136
:101440001092FD011092FE011092FF010E94200CEB
:1014500009C00E94C602E1E0F0E0EC0FFD1FE00FC2
:10146000F11F80830F2D0F2C000C110BE1E0F0E039
:10147000EC0FFD1FE00FF11F808190ED980F9A3067
:1014800040F79FEF22E537E0915020403040E1F7F0
:1014900000C000000E94D6030E94240CF39481E057
:1014A0008F1524F69FEF24E33CE09150204030401C
:1014B000E1F700C00000898190E0C0979C01220FF5
:1014C000331F880F991F880F991F880F991F820F4C
:1014D000931F0A8110E000531109080F191F81E0C2
:1014E0000E94800C802F0E94800C8FE798E321E0FF
:1014F000815090402040E1F700C00000602F88E854
:1015000090E00E94AA0281E00E9442038FE19EE4E3
:101510000197F1F700C000008DE291E00E94F8030E
:1015200081E00E9442038FE19EE40197F1F700C041
:1015300000000E94650902C00E9465090F900F908B
:101540000F90DF91CF911F910F91FF9008958AB373
:1015500081608ABB8AB382608ABB8AB384608ABB9B
:101560008BB38E7F8BBB8BB38D7F8BBB8BB38B7F12
:101570008BBB0E9464030E94BD0280E895E20E943A
:10158000670C20E040E065E080E00E94280C789441
:1015900068E080E690E00E9405048CEA91E00E94F9
:1015A000F80361E082E00E94B50388EB91E00E94BD
:1015B000F8032FEF84E39CE0215080409040E1F756
:1015C00000C0000081E00E9442038FE19EE4019789
:1015D000F1F700C0000089E990E00E94B6028F3F59
:1015E00009F07BC084EC91E00E94F80361E082E0A6
:1015F0000E94B5038CEB90E00E94F80385E092E036
:101600000E943C0480EC91E00E94F80381E00E947B
:1016100042038FE19EE40197F1F700C000008EECD9
:1016200091E00E94F80361E082E00E94B5038CEB38
:1016300090E00E94F80380E092E00E943C0480EC7D
:1016400091E00E94F80381E00E9442038FE19EE452
:101650000197F1F700C00000C0E01AC00C2F10E0A5
:10166000F801EB5FFD4F6081C80193950E94AA02CB
:101670008FE097E20197F1F700C00000F801E05019
:10168000FE4F6081C8018C5F9E4F0E94AA02CF5F0F
:10169000C43020F361E089E990E00E94AA0288ED5D
:1016A00091E00E94F80361E082E00E94B50384EEBD
:1016B00091E00E94F8039FEF23ED80E391502040DA
:1016C0008040E1F700C0000081E00E9442038FE10A
:1016D0009EE40197F1F700C000000E94B8048091D9
:1016E0000402803361F48BB381608BBB8BB38D7F3D
:1016F0008BBB8BB38B7F8BBB0E940809F0CF8133F0
:1017000061F48BB382608BBB8BB38E7F8BBB8BB34F
:101710008B7F8BBB0E945408E2CF8BB38E7F8BBB39
:101720008BB38D7F8BBB8BB38B7F8BBBD8CF1F9243
:101730000F920FB60F9211240F932F933F934F9355
:101740005F936F937F938F939F93AF93BF93EF9329
:10175000FF932091F8013091F9014091FA015091E5
:10176000FB016091FC017091FD018091FE0190915F
:10177000FF01A1E00E94CA0C2093F8013093F90107
:101780004093FA015093FB016093FC017093FD01BB
:101790008093FE019093FF012091F8013091F901AF
:1017A0004091FA015091FB016091FC017091FD01A3
:1017B0008091FE019091FF0105E00E94B10C203262
:1017C0003E4441055105610571058105910531F1E1
:1017D00028F11092F8011092F9011092FA0110927A
:1017E000FB011092FC011092FD011092FE0110927B
:1017F000FF0181E00E94420380EF91E00E94F80324
:101800008FEF809304022FEF89E698E1215080400A
:101810009040E1F700C000000E94A70AFF91EF91FD
:10182000BF91AF919F918F917F916F915F914F91F8
:101830003F912F910F910F900FBE0F901F90189511
:1018400089B7816089BF089589B78E7F89BF089560
:10185000811102C022BF01C02CBF813069F028F085
:10186000823089F08330B1F01EC083B78F7B83BF95
:1018700083B7877F83BF17C083B7806483BF83B775
:10188000877F83BF10C083B78F7B83BF83B7886098
:1018900083BF09C083B7806483BF83B7886083BF79
:1018A00087B3886087BB83B78F7E83BF83B78F7D05
:1018B00083BF83B790E1499FA0011124482B43BF08
:1018C00083B7887F83BF83B7682B63BF08959C016C
:1018D00040E050E060E271EA87E090E00E94890C0D
:1018E0002150310930BD29B98AB180618AB98AB1E4
:1018F00088608AB98AB180688AB986E880BD08950F
:101900009AEF03C0923020F091505D9BFBCF8CB9D1
:101910000895A1E21A2EAA1BBB1BFD010DC0AA1F30
:10192000BB1FEE1FFF1FA217B307E407F50720F048
:10193000A21BB30BE40BF50B661F771F881F991FC3
:101940001A9469F760957095809590959B01AC010C
:10195000BD01CF010895EE0FFF1F0590F491E02D1A
:1019600009940F93083090F0982F872F762F652FCA
:10197000542F432F322F22270850F4CF220F331F2A
:10198000441F551F661F771F881F991F0A95B2F7BE
:101990000F9108950024A7FD00942A0F301D401DCB
:1019A000501D601D701D801D901D0895A0E0B0E0C9
:1019B000ECEDFCE00C94AF0FAE014B5F5F4FFA0112
:1019C00061917191AF0180910B0290910C020E9484
:1019D0000E0DE2E00C94CB0FAEE0B0E0E2EFFCE0E5
:1019E0000C94AD0F0D891E8986E08C831A830983C0
:1019F0008FEF9FE79E838D83AE01475E5F4F6F89B8
:101A0000788DCE0101960E940E0DEF81F885E00FD2
:101A1000F11F10822E96E4E00C94C90FABE0B0E009
:101A2000E4E1FDE00C949F0F6C017B018A01FC0155
:101A300017821682838181FFCCC1CE0101963C01C1
:101A4000F6019381F70193FD859193FF81917F01C9
:101A5000882309F4BAC1853239F493FD859193FF47
:101A600081917F01853229F4B60190E00E94050F33
:101A7000E7CF912C212C312CFFE1F315D8F08B32DC
:101A800079F038F4803279F08332A1F4232D20618B
:101A90001DC08D3261F0803369F4232D216016C0A2
:101AA000832D8260382EE32DE4603E2E2AC0F32D74
:101AB000F8601DC037FC2DC020ED280F2A3040F003
:101AC0008E32B9F436FC81C1232D2064322E19C028
:101AD00036FE06C08AE0989E200D1124922E11C079
:101AE000EAE02E9E200D1124222EF32DF0623F2ECF
:101AF00008C08C3621F4832D8068382E02C08836C9
:101B000041F4F70193FD859193FF81917F0181114C
:101B1000B3CF982F9F7D9554933028F40C5F1F4FBF
:101B20009FE399830DC0833631F0833771F083359D
:101B300009F059C021C0F801808189830E5F1F4FD1
:101B400088248394912C530113C02801F2E04F0E96
:101B5000511CF801A080B18036FE03C0692D70E0F1
:101B600002C06FEF7FEFC5010E94FA0E4C018201A7
:101B7000F32DFF773F2E16C0280122E0420E511CA4
:101B8000F801A080B18036FE03C0692D70E002C06C
:101B90006FEF7FEFC5010E94EF0E4C01F32DF0684F
:101BA0003F2E820133FC1BC0822D90E088169906DF
:101BB000B0F4B60180E290E00E94050F2A94F4CFC1
:101BC000F50137FC859137FE81915F01B60190E008
:101BD0000E94050F21102A9421E0821A9108811495
:101BE000910471F7E8C0843611F0893641F5F801A7
:101BF00037FE07C060817181828193810C5F1F4F26
:101C000008C060817181072E000C880B990B0E5F54
:101C10001F4FF32DFF763F2E97FF09C090958095BB
:101C2000709561957F4F8F4F9F4FF0683F2E2AE050
:101C300030E0A3010E94410F882E861845C08537E9
:101C400031F4232D2F7EB22E2AE030E025C0932DD3
:101C5000997FB92E8F36C1F018F4883579F0B5C068
:101C6000803719F0883721F0B0C0E92FE061BE2E2F
:101C7000B4FE0DC0FB2DF460BF2E09C034FE0AC0B7
:101C8000292F2660B22E06C028E030E005C020E1F2
:101C900030E002C020E132E0F801B7FE07C0608109
:101CA0007181828193810C5F1F4F06C060817181B9
:101CB00080E090E00E5F1F4FA3010E94410F882E2D
:101CC0008618FB2DFF773F2E36FE0DC0232D2E7F6D
:101CD000A22E891458F434FE0BC032FC09C0832DA7
:101CE0008E7EA82E05C0B82CA32C03C0B82C01C032
:101CF000B92CA4FE0FC0FE01E80DF11D80818033D8
:101D000021F49A2D997EA92E09C0A2FE06C0B39493
:101D1000B39404C08A2D867809F0B394A3FC11C053
:101D2000A0FE06C0B21488F4280C922C9B180EC09A
:101D3000B21460F4B60180E290E00E94050FB39403
:101D4000F7CFB21418F42B1802C0982C212CA4FE43
:101D500010C0B60180E390E00E94050FA2FE17C0FC
:101D6000A1FC03C088E790E002C088E590E0B601DE
:101D70000CC08A2D867859F0A1FE02C08BE201C00A
:101D800080E2A7FC8DE2B60190E00E94050F891465
:101D900038F4B60180E390E00E94050F9A94F7CFE3
:101DA0008A94F301E80DF11D8081B60190E00E9454
:101DB000050F8110F5CF222009F442CEB60180E252
:101DC00090E00E94050F2A94F6CFF6018681978154
:101DD00002C08FEF9FEF2B96E2E10C94BB0FFC014A
:101DE0000590615070400110D8F7809590958E0F46
:101DF0009F1F0895FC016150704001900110D8F7B9
:101E0000809590958E0F9F1F08950F931F93CF93EA
:101E1000DF93FB01238121FD03C08FEF9FEF2CC0D7
:101E200022FF16C04681578124813581421753070E
:101E300044F4A081B1819D012F5F3F4F3183208306
:101E40008C93268137812F5F3F4F3783268314C0C1
:101E50008B01EC01FB010084F185E02D0995892BB4
:101E6000E1F6D80116968D919C91179701961796D9
:101E70009C938E931697CE01DF91CF911F910F9176
:101E80000895FA01AA27283051F1203181F1E89410
:101E90006F936E7F6E5F7F4F8F4F9F4FAF4FB1E05D
:101EA0003ED0B4E03CD0670F781F891F9A1FA11D58
:101EB000680F791F8A1F911DA11D6A0F711D811D59
:101EC000911DA11D20D009F468943F912AE0269F1E
:101ED00011243019305D3193DEF6CF010895462F7D
:101EE0004770405D4193B3E00FD0C9F7F6CF462F5E
:101EF0004F70405D4A3318F0495D31FD40524193C7
:101F000002D0A9F7EACFB4E0A69597958795779583
:101F10006795BA95C9F700976105710508959B010A
:101F2000AC010A2E06945795479537952795BA9593
:101F3000C9F7620F731F841F951FA01D08952F926C
:101F40003F924F925F926F927F928F929F92AF9249
:101F5000BF92CF92DF92EF92FF920F931F93CF9396
:101F6000DF93CDB7DEB7CA1BDB0B0FB6F894DEBF2D
:101F70000FBECDBF09942A88398848885F846E8453
:101F80007D848C849B84AA84B984C884DF80EE809D
:101F9000FD800C811B81AA81B981CE0FD11D0FB6A6
:101FA000F894DEBF0FBECDBFED010895F894FFCFCA
:101FB0003601360136013601360136013601360169
:101FC0003738392F3435362A3132332D41303D2BD5
:101FD0006572726F7220696E2064696F5F736574D9
:101FE00070696E005748494348204D4F44453F00B3
:101FF000302D41444D494E20312D47554553540015
:10200000656E7465722041646D696E0070617373F2
:102010003A0052494748542050415353574F524475
:1020200000256400747279206C65667400626C6FC0
:10203000636B203230207300656E746572204755E3
:1020400045535400312D4F4E20322D4F46462033FC
:102050002D52455400342D454449545F524F4F4D45
:1020600053004544495420524F4F4D533A00736139
:10207000766564004F4E20524F4F4D3A006F6B2EE5
:102080002E2E006E6F20726F6F6D004F46462052ED
:102090004F4F4D3A00312D545620322D524F4F4D57
:1020A0005300312D6F70656E00322D636C6F736558
:1020B00020332D72657400312D434F4E20322D4751
:1020C000415220332D545600342D444F4F52203569
:1020D0002D524F4F4D5300312D7365742074656D33
:1020E0007020322D72657400332D6F6E20342D6F89
:1020F00066660074656D703D5F5F4300486F6D6597
:102100002053797374656D005374617274696E67DE
:102110002E2E2E005365742041646D696E00536548
:10212000742047554553540041444D494E20534176
:1021300056454400475545535420534156454400A5
:0821400074696D656F75740090
:00000001FF
